{
  "_format": "hh-sol-artifact-1",
  "contractName": "Testium",
  "sourceName": "contracts/Testium.sol",
  "abi": [
    {
      "inputs": [],
      "stateMutability": "nonpayable",
      "type": "constructor"
    },
    {
      "anonymous": false,
      "inputs": [
        {
          "indexed": true,
          "internalType": "address",
          "name": "owner",
          "type": "address"
        },
        {
          "indexed": true,
          "internalType": "address",
          "name": "spender",
          "type": "address"
        },
        {
          "indexed": false,
          "internalType": "uint256",
          "name": "value",
          "type": "uint256"
        }
      ],
      "name": "Approval",
      "type": "event"
    },
    {
      "anonymous": false,
      "inputs": [
        {
          "indexed": false,
          "internalType": "address",
          "name": "monetaryPolicy",
          "type": "address"
        }
      ],
      "name": "LogMonetaryPolicyUpdated",
      "type": "event"
    },
    {
      "anonymous": false,
      "inputs": [
        {
          "indexed": true,
          "internalType": "uint256",
          "name": "epoch",
          "type": "uint256"
        },
        {
          "indexed": false,
          "internalType": "uint256",
          "name": "totalSupply",
          "type": "uint256"
        }
      ],
      "name": "LogRebase",
      "type": "event"
    },
    {
      "anonymous": false,
      "inputs": [
        {
          "indexed": false,
          "internalType": "address",
          "name": "user",
          "type": "address"
        },
        {
          "indexed": false,
          "internalType": "bool",
          "name": "banned",
          "type": "bool"
        }
      ],
      "name": "LogUserBanStatusUpdated",
      "type": "event"
    },
    {
      "anonymous": false,
      "inputs": [
        {
          "indexed": true,
          "internalType": "address",
          "name": "previousOwner",
          "type": "address"
        },
        {
          "indexed": true,
          "internalType": "address",
          "name": "newOwner",
          "type": "address"
        }
      ],
      "name": "OwnershipTransferred",
      "type": "event"
    },
    {
      "anonymous": false,
      "inputs": [
        {
          "indexed": true,
          "internalType": "address",
          "name": "from",
          "type": "address"
        },
        {
          "indexed": true,
          "internalType": "address",
          "name": "to",
          "type": "address"
        },
        {
          "indexed": false,
          "internalType": "uint256",
          "name": "value",
          "type": "uint256"
        }
      ],
      "name": "Transfer",
      "type": "event"
    },
    {
      "inputs": [
        {
          "internalType": "address",
          "name": "owner_",
          "type": "address"
        },
        {
          "internalType": "address",
          "name": "spender",
          "type": "address"
        }
      ],
      "name": "allowance",
      "outputs": [
        {
          "internalType": "uint256",
          "name": "",
          "type": "uint256"
        }
      ],
      "stateMutability": "view",
      "type": "function"
    },
    {
      "inputs": [
        {
          "internalType": "address",
          "name": "spender",
          "type": "address"
        },
        {
          "internalType": "uint256",
          "name": "value",
          "type": "uint256"
        }
      ],
      "name": "approve",
      "outputs": [
        {
          "internalType": "bool",
          "name": "",
          "type": "bool"
        }
      ],
      "stateMutability": "nonpayable",
      "type": "function"
    },
    {
      "inputs": [
        {
          "internalType": "address",
          "name": "who",
          "type": "address"
        }
      ],
      "name": "balanceOf",
      "outputs": [
        {
          "internalType": "uint256",
          "name": "",
          "type": "uint256"
        }
      ],
      "stateMutability": "view",
      "type": "function"
    },
    {
      "inputs": [
        {
          "internalType": "address",
          "name": "",
          "type": "address"
        }
      ],
      "name": "bannedUsers",
      "outputs": [
        {
          "internalType": "bool",
          "name": "",
          "type": "bool"
        }
      ],
      "stateMutability": "view",
      "type": "function"
    },
    {
      "inputs": [
        {
          "internalType": "uint256",
          "name": "amount",
          "type": "uint256"
        }
      ],
      "name": "burn",
      "outputs": [],
      "stateMutability": "nonpayable",
      "type": "function"
    },
    {
      "inputs": [
        {
          "internalType": "address",
          "name": "account",
          "type": "address"
        },
        {
          "internalType": "uint256",
          "name": "amount",
          "type": "uint256"
        }
      ],
      "name": "burnFrom",
      "outputs": [],
      "stateMutability": "nonpayable",
      "type": "function"
    },
    {
      "inputs": [],
      "name": "decimals",
      "outputs": [
        {
          "internalType": "uint8",
          "name": "",
          "type": "uint8"
        }
      ],
      "stateMutability": "view",
      "type": "function"
    },
    {
      "inputs": [
        {
          "internalType": "address",
          "name": "spender",
          "type": "address"
        },
        {
          "internalType": "uint256",
          "name": "subtractedValue",
          "type": "uint256"
        }
      ],
      "name": "decreaseAllowance",
      "outputs": [
        {
          "internalType": "bool",
          "name": "",
          "type": "bool"
        }
      ],
      "stateMutability": "nonpayable",
      "type": "function"
    },
    {
      "inputs": [
        {
          "internalType": "address",
          "name": "spender",
          "type": "address"
        },
        {
          "internalType": "uint256",
          "name": "addedValue",
          "type": "uint256"
        }
      ],
      "name": "increaseAllowance",
      "outputs": [
        {
          "internalType": "bool",
          "name": "",
          "type": "bool"
        }
      ],
      "stateMutability": "nonpayable",
      "type": "function"
    },
    {
      "inputs": [],
      "name": "monetaryPolicy",
      "outputs": [
        {
          "internalType": "address",
          "name": "",
          "type": "address"
        }
      ],
      "stateMutability": "view",
      "type": "function"
    },
    {
      "inputs": [],
      "name": "name",
      "outputs": [
        {
          "internalType": "string",
          "name": "",
          "type": "string"
        }
      ],
      "stateMutability": "view",
      "type": "function"
    },
    {
      "inputs": [],
      "name": "owner",
      "outputs": [
        {
          "internalType": "address",
          "name": "",
          "type": "address"
        }
      ],
      "stateMutability": "view",
      "type": "function"
    },
    {
      "inputs": [
        {
          "internalType": "uint256",
          "name": "epoch",
          "type": "uint256"
        },
        {
          "internalType": "int256",
          "name": "supplyDelta",
          "type": "int256"
        }
      ],
      "name": "rebase",
      "outputs": [
        {
          "internalType": "uint256",
          "name": "",
          "type": "uint256"
        }
      ],
      "stateMutability": "nonpayable",
      "type": "function"
    },
    {
      "inputs": [],
      "name": "renounceOwnership",
      "outputs": [],
      "stateMutability": "nonpayable",
      "type": "function"
    },
    {
      "inputs": [
        {
          "internalType": "address",
          "name": "monetaryPolicy_",
          "type": "address"
        }
      ],
      "name": "setMonetaryPolicy",
      "outputs": [],
      "stateMutability": "nonpayable",
      "type": "function"
    },
    {
      "inputs": [
        {
          "internalType": "address",
          "name": "user",
          "type": "address"
        },
        {
          "internalType": "bool",
          "name": "banned",
          "type": "bool"
        }
      ],
      "name": "setUserBanStatus",
      "outputs": [],
      "stateMutability": "nonpayable",
      "type": "function"
    },
    {
      "inputs": [],
      "name": "symbol",
      "outputs": [
        {
          "internalType": "string",
          "name": "",
          "type": "string"
        }
      ],
      "stateMutability": "view",
      "type": "function"
    },
    {
      "inputs": [],
      "name": "totalSupply",
      "outputs": [
        {
          "internalType": "uint256",
          "name": "",
          "type": "uint256"
        }
      ],
      "stateMutability": "view",
      "type": "function"
    },
    {
      "inputs": [
        {
          "internalType": "address",
          "name": "to",
          "type": "address"
        },
        {
          "internalType": "uint256",
          "name": "value",
          "type": "uint256"
        }
      ],
      "name": "transfer",
      "outputs": [
        {
          "internalType": "bool",
          "name": "",
          "type": "bool"
        }
      ],
      "stateMutability": "nonpayable",
      "type": "function"
    },
    {
      "inputs": [
        {
          "internalType": "address",
          "name": "from",
          "type": "address"
        },
        {
          "internalType": "address",
          "name": "to",
          "type": "address"
        },
        {
          "internalType": "uint256",
          "name": "value",
          "type": "uint256"
        }
      ],
      "name": "transferFrom",
      "outputs": [
        {
          "internalType": "bool",
          "name": "",
          "type": "bool"
        }
      ],
      "stateMutability": "nonpayable",
      "type": "function"
    },
    {
      "inputs": [
        {
          "internalType": "address",
          "name": "newOwner",
          "type": "address"
        }
      ],
      "name": "transferOwnership",
      "outputs": [],
      "stateMutability": "nonpayable",
      "type": "function"
    }
  ],
  "bytecode": "0x60806040523480156200001157600080fd5b506040518060400160405280600781526020017f5465737469756d000000000000000000000000000000000000000000000000008152506040518060400160405280600481526020017f544553540000000000000000000000000000000000000000000000000000000081525081600390805190602001906200009692919062000571565b508060049080519060200190620000af92919062000571565b505050620000d2620000c66200031360201b60201c565b6200031b60201b60201c565b620000f8336000196fffffffffffffffffffffffffffffffff16620003e160201b60201c565b6000600660146101000a81548160ff0219169083151502179055506000600660156101000a81548160ff0219169083151502179055506009600a6200013e9190620007b4565b6302faf0806200014f9190620008f1565b6007819055506009600a620001659190620007b4565b6302faf080620001769190620008f1565b600019620001859190620009cd565b60001962000194919062000952565b600960003373ffffffffffffffffffffffffffffffffffffffff1673ffffffffffffffffffffffffffffffffffffffff16815260200190815260200160002081905550620002316007546009600a620001ee9190620007b4565b6302faf080620001ff9190620008f1565b6000196200020e9190620009cd565b6000196200021d919062000952565b6200054f60201b6200170d1790919060201c565b6008819055506001600a600073eb31973e0febf3e3d7058234a5ebbae1ab4b8c2373ffffffffffffffffffffffffffffffffffffffff1673ffffffffffffffffffffffffffffffffffffffff16815260200190815260200160002060006101000a81548160ff0219169083151502179055503373ffffffffffffffffffffffffffffffffffffffff16600073ffffffffffffffffffffffffffffffffffffffff167fddf252ad1be2c89b69c2b068fc378daa952ba7f163c4a11628f55a4df523b3ef60075460405162000305919062000696565b60405180910390a362000a9f565b600033905090565b6000600560009054906101000a900473ffffffffffffffffffffffffffffffffffffffff16905081600560006101000a81548173ffffffffffffffffffffffffffffffffffffffff021916908373ffffffffffffffffffffffffffffffffffffffff1602179055508173ffffffffffffffffffffffffffffffffffffffff168173ffffffffffffffffffffffffffffffffffffffff167f8be0079c531659141344cd1fd0a4f28419497f9722a3daafe3b4186f6b6457e060405160405180910390a35050565b600073ffffffffffffffffffffffffffffffffffffffff168273ffffffffffffffffffffffffffffffffffffffff16141562000454576040517f08c379a00000000000000000000000000000000000000000000000000000000081526004016200044b9062000674565b60405180910390fd5b62000468600083836200056760201b60201c565b80600260008282546200047c9190620006c4565b92505081905550806000808473ffffffffffffffffffffffffffffffffffffffff1673ffffffffffffffffffffffffffffffffffffffff168152602001908152602001600020600082825401925050819055508173ffffffffffffffffffffffffffffffffffffffff16600073ffffffffffffffffffffffffffffffffffffffff167fddf252ad1be2c89b69c2b068fc378daa952ba7f163c4a11628f55a4df523b3ef836040516200052f919062000696565b60405180910390a36200054b600083836200056c60201b60201c565b5050565b600081836200055f919062000721565b905092915050565b505050565b505050565b8280546200057f9062000997565b90600052602060002090601f016020900481019282620005a35760008555620005ef565b82601f10620005be57805160ff1916838001178555620005ef565b82800160010185558215620005ef579182015b82811115620005ee578251825591602001919060010190620005d1565b5b509050620005fe919062000602565b5090565b5b808211156200061d57600081600090555060010162000603565b5090565b600062000630601f83620006b3565b91507f45524332303a206d696e7420746f20746865207a65726f2061646472657373006000830152602082019050919050565b6200066e816200098d565b82525050565b600060208201905081810360008301526200068f8162000621565b9050919050565b6000602082019050620006ad600083018462000663565b92915050565b600082825260208201905092915050565b6000620006d1826200098d565b9150620006de836200098d565b9250827fffffffffffffffffffffffffffffffffffffffffffffffffffffffffffffffff0382111562000716576200071562000a05565b5b828201905092915050565b60006200072e826200098d565b91506200073b836200098d565b9250826200074e576200074d62000a34565b5b828204905092915050565b6000808291508390505b6001851115620007ab5780860481111562000783576200078262000a05565b5b6001851615620007935780820291505b8081029050620007a38562000a92565b945062000763565b94509492505050565b6000620007c1826200098d565b9150620007ce836200098d565b9250620007fd7fffffffffffffffffffffffffffffffffffffffffffffffffffffffffffffffff848462000805565b905092915050565b600082620008175760019050620008ea565b81620008275760009050620008ea565b81600181146200084057600281146200084b5762000881565b6001915050620008ea565b60ff84111562000860576200085f62000a05565b5b8360020a9150848211156200087a576200087962000a05565b5b50620008ea565b5060208310610133831016604e8410600b8410161715620008bb5782820a905083811115620008b557620008b462000a05565b5b620008ea565b620008ca848484600162000759565b92509050818404811115620008e457620008e362000a05565b5b81810290505b9392505050565b6000620008fe826200098d565b91506200090b836200098d565b9250817fffffffffffffffffffffffffffffffffffffffffffffffffffffffffffffffff048311821515161562000947576200094662000a05565b5b828202905092915050565b60006200095f826200098d565b91506200096c836200098d565b92508282101562000982576200098162000a05565b5b828203905092915050565b6000819050919050565b60006002820490506001821680620009b057607f821691505b60208210811415620009c757620009c662000a63565b5b50919050565b6000620009da826200098d565b9150620009e7836200098d565b925082620009fa57620009f962000a34565b5b828206905092915050565b7f4e487b7100000000000000000000000000000000000000000000000000000000600052601160045260246000fd5b7f4e487b7100000000000000000000000000000000000000000000000000000000600052601260045260246000fd5b7f4e487b7100000000000000000000000000000000000000000000000000000000600052602260045260246000fd5b60008160011c9050919050565b6128ff8062000aaf6000396000f3fe608060405234801561001057600080fd5b50600436106101375760003560e01c806379cc6790116100b85780638e27d7d71161007c5780638e27d7d71461034e57806395d89b411461036c578063a457c2d71461038a578063a9059cbb146103ba578063dd62ed3e146103ea578063f2fde38b1461041a57610137565b806379cc6790146102985780637a43e23f146102b45780638988d078146102e45780638b5a6a08146103145780638da5cb5b1461033057610137565b806339509351116100ff57806339509351146101f657806342966c681461022657806367b8c3191461024257806370a082311461025e578063715018a61461028e57610137565b806306fdde031461013c578063095ea7b31461015a57806318160ddd1461018a57806323b872dd146101a8578063313ce567146101d8575b600080fd5b610144610436565b60405161015191906122b3565b60405180910390f35b610174600480360381019061016f9190611e40565b6104c8565b6040516101819190612298565b60405180910390f35b6101926105ba565b60405161019f91906123f5565b60405180910390f35b6101c260048036038101906101bd9190611db5565b6105c4565b6040516101cf9190612298565b60405180910390f35b6101e0610991565b6040516101ed9190612410565b60405180910390f35b610210600480360381019061020b9190611e40565b61099a565b60405161021d9190612298565b60405180910390f35b610240600480360381019061023b9190611e7c565b610b96565b005b61025c60048036038101906102579190611e04565b610baa565b005b61027860048036038101906102739190611d50565b610ca2565b60405161028591906123f5565b60405180910390f35b610296610cff565b005b6102b260048036038101906102ad9190611e40565b610d13565b005b6102ce60048036038101906102c99190611ea5565b610d33565b6040516102db91906123f5565b60405180910390f35b6102fe60048036038101906102f99190611d50565b610f30565b60405161030b9190612298565b60405180910390f35b61032e60048036038101906103299190611d50565b610f50565b005b610338610fd3565b6040516103459190612254565b60405180910390f35b610356610ffd565b6040516103639190612254565b60405180910390f35b610374611023565b60405161038191906122b3565b60405180910390f35b6103a4600480360381019061039f9190611e40565b6110b5565b6040516103b19190612298565b60405180910390f35b6103d460048036038101906103cf9190611e40565b611345565b6040516103e19190612298565b60405180910390f35b61040460048036038101906103ff9190611d79565b611602565b60405161041191906123f5565b60405180910390f35b610434600480360381019061042f9190611d50565b611689565b005b6060600380546104459061275f565b80601f01602080910402602001604051908101604052809291908181526020018280546104719061275f565b80156104be5780601f10610493576101008083540402835291602001916104be565b820191906000526020600020905b8154815290600101906020018083116104a157829003601f168201915b5050505050905090565b600081600b60003373ffffffffffffffffffffffffffffffffffffffff1673ffffffffffffffffffffffffffffffffffffffff16815260200190815260200160002060008573ffffffffffffffffffffffffffffffffffffffff1673ffffffffffffffffffffffffffffffffffffffff168152602001908152602001600020819055508273ffffffffffffffffffffffffffffffffffffffff163373ffffffffffffffffffffffffffffffffffffffff167f8c5be1e5ebec7d5bd14f71427d1e84f3dd0314c0f7b2291e5b200ac8c7c3b925846040516105a891906123f5565b60405180910390a36001905092915050565b6000600754905090565b600082600073ffffffffffffffffffffffffffffffffffffffff168173ffffffffffffffffffffffffffffffffffffffff16141561060157600080fd5b3073ffffffffffffffffffffffffffffffffffffffff168173ffffffffffffffffffffffffffffffffffffffff16141561063a57600080fd5b60001515600a60003373ffffffffffffffffffffffffffffffffffffffff1673ffffffffffffffffffffffffffffffffffffffff16815260200190815260200160002060009054906101000a900460ff161515146106cd576040517f08c379a00000000000000000000000000000000000000000000000000000000081526004016106c4906123d5565b60405180910390fd5b61075c83600b60008873ffffffffffffffffffffffffffffffffffffffff1673ffffffffffffffffffffffffffffffffffffffff16815260200190815260200160002060003373ffffffffffffffffffffffffffffffffffffffff1673ffffffffffffffffffffffffffffffffffffffff1681526020019081526020016000205461172390919063ffffffff16565b600b60008773ffffffffffffffffffffffffffffffffffffffff1673ffffffffffffffffffffffffffffffffffffffff16815260200190815260200160002060003373ffffffffffffffffffffffffffffffffffffffff1673ffffffffffffffffffffffffffffffffffffffff1681526020019081526020016000208190555060006107f36008548561173990919063ffffffff16565b905061084781600960008973ffffffffffffffffffffffffffffffffffffffff1673ffffffffffffffffffffffffffffffffffffffff1681526020019081526020016000205461172390919063ffffffff16565b600960008873ffffffffffffffffffffffffffffffffffffffff1673ffffffffffffffffffffffffffffffffffffffff168152602001908152602001600020819055506108dc81600960008873ffffffffffffffffffffffffffffffffffffffff1673ffffffffffffffffffffffffffffffffffffffff1681526020019081526020016000205461174f90919063ffffffff16565b600960008773ffffffffffffffffffffffffffffffffffffffff1673ffffffffffffffffffffffffffffffffffffffff168152602001908152602001600020819055508473ffffffffffffffffffffffffffffffffffffffff168673ffffffffffffffffffffffffffffffffffffffff167fddf252ad1be2c89b69c2b068fc378daa952ba7f163c4a11628f55a4df523b3ef8660405161097c91906123f5565b60405180910390a36001925050509392505050565b60006012905090565b6000610a2b82600b60003373ffffffffffffffffffffffffffffffffffffffff1673ffffffffffffffffffffffffffffffffffffffff16815260200190815260200160002060008673ffffffffffffffffffffffffffffffffffffffff1673ffffffffffffffffffffffffffffffffffffffff1681526020019081526020016000205461174f90919063ffffffff16565b600b60003373ffffffffffffffffffffffffffffffffffffffff1673ffffffffffffffffffffffffffffffffffffffff16815260200190815260200160002060008573ffffffffffffffffffffffffffffffffffffffff1673ffffffffffffffffffffffffffffffffffffffff168152602001908152602001600020819055508273ffffffffffffffffffffffffffffffffffffffff163373ffffffffffffffffffffffffffffffffffffffff167f8c5be1e5ebec7d5bd14f71427d1e84f3dd0314c0f7b2291e5b200ac8c7c3b925600b60003373ffffffffffffffffffffffffffffffffffffffff1673ffffffffffffffffffffffffffffffffffffffff16815260200190815260200160002060008773ffffffffffffffffffffffffffffffffffffffff1673ffffffffffffffffffffffffffffffffffffffff16815260200190815260200160002054604051610b8491906123f5565b60405180910390a36001905092915050565b610ba7610ba1611765565b8261176d565b50565b610bb261193b565b8015610c15576001600a60008473ffffffffffffffffffffffffffffffffffffffff1673ffffffffffffffffffffffffffffffffffffffff16815260200190815260200160002060006101000a81548160ff021916908315150217905550610c65565b600a60008373ffffffffffffffffffffffffffffffffffffffff1673ffffffffffffffffffffffffffffffffffffffff16815260200190815260200160002060006101000a81549060ff02191690555b7f9d96fd0be79238fe0114d59e66ab2107b1369256adc03ad3f29b6deb2bc7508a8282604051610c9692919061226f565b60405180910390a15050565b6000610cf8600854600960008573ffffffffffffffffffffffffffffffffffffffff1673ffffffffffffffffffffffffffffffffffffffff1681526020019081526020016000205461170d90919063ffffffff16565b9050919050565b610d0761193b565b610d1160006119b9565b565b610d2582610d1f611765565b83611a7f565b610d2f828261176d565b5050565b6000600660009054906101000a900473ffffffffffffffffffffffffffffffffffffffff1673ffffffffffffffffffffffffffffffffffffffff163373ffffffffffffffffffffffffffffffffffffffff1614610dc5576040517f08c379a0000000000000000000000000000000000000000000000000000000008152600401610dbc906123b5565b60405180910390fd5b6000821415610e1257827f72725a3b1e5bd622d6bcd1339bb31279c351abe8f541ac7fd320f24e1b1641f2600754604051610e0091906123f5565b60405180910390a26007549050610f2a565b6000821215610e4357610e38610e2783611b0b565b60075461172390919063ffffffff16565b600781905550610e5f565b610e588260075461174f90919063ffffffff16565b6007819055505b6000196fffffffffffffffffffffffffffffffff166007541115610e99576000196fffffffffffffffffffffffffffffffff166007819055505b610ee46007546009600a610ead9190612521565b6302faf080610ebc919061263f565b600019610ec99190612791565b600019610ed69190612699565b61170d90919063ffffffff16565b600881905550827f72725a3b1e5bd622d6bcd1339bb31279c351abe8f541ac7fd320f24e1b1641f2600754604051610f1c91906123f5565b60405180910390a260075490505b92915050565b600a6020528060005260406000206000915054906101000a900460ff1681565b610f5861193b565b80600660006101000a81548173ffffffffffffffffffffffffffffffffffffffff021916908373ffffffffffffffffffffffffffffffffffffffff1602179055507f0e6961f1a1afb87eaf51fd64f22ddc10062e23aa7838eac5d0bdf140bfd3897281604051610fc89190612254565b60405180910390a150565b6000600560009054906101000a900473ffffffffffffffffffffffffffffffffffffffff16905090565b600660009054906101000a900473ffffffffffffffffffffffffffffffffffffffff1681565b6060600480546110329061275f565b80601f016020809104026020016040519081016040528092919081815260200182805461105e9061275f565b80156110ab5780601f10611080576101008083540402835291602001916110ab565b820191906000526020600020905b81548152906001019060200180831161108e57829003601f168201915b5050505050905090565b600080600b60003373ffffffffffffffffffffffffffffffffffffffff1673ffffffffffffffffffffffffffffffffffffffff16815260200190815260200160002060008573ffffffffffffffffffffffffffffffffffffffff1673ffffffffffffffffffffffffffffffffffffffff1681526020019081526020016000205490508083106111c5576000600b60003373ffffffffffffffffffffffffffffffffffffffff1673ffffffffffffffffffffffffffffffffffffffff16815260200190815260200160002060008673ffffffffffffffffffffffffffffffffffffffff1673ffffffffffffffffffffffffffffffffffffffff16815260200190815260200160002081905550611259565b6111d8838261172390919063ffffffff16565b600b60003373ffffffffffffffffffffffffffffffffffffffff1673ffffffffffffffffffffffffffffffffffffffff16815260200190815260200160002060008673ffffffffffffffffffffffffffffffffffffffff1673ffffffffffffffffffffffffffffffffffffffff168152602001908152602001600020819055505b8373ffffffffffffffffffffffffffffffffffffffff163373ffffffffffffffffffffffffffffffffffffffff167f8c5be1e5ebec7d5bd14f71427d1e84f3dd0314c0f7b2291e5b200ac8c7c3b925600b60003373ffffffffffffffffffffffffffffffffffffffff1673ffffffffffffffffffffffffffffffffffffffff16815260200190815260200160002060008873ffffffffffffffffffffffffffffffffffffffff1673ffffffffffffffffffffffffffffffffffffffff1681526020019081526020016000205460405161133291906123f5565b60405180910390a3600191505092915050565b600082600073ffffffffffffffffffffffffffffffffffffffff168173ffffffffffffffffffffffffffffffffffffffff16141561138257600080fd5b3073ffffffffffffffffffffffffffffffffffffffff168173ffffffffffffffffffffffffffffffffffffffff1614156113bb57600080fd5b60001515600a60003373ffffffffffffffffffffffffffffffffffffffff1673ffffffffffffffffffffffffffffffffffffffff16815260200190815260200160002060009054906101000a900460ff1615151461144e576040517f08c379a0000000000000000000000000000000000000000000000000000000008152600401611445906123d5565b60405180910390fd5b60006114656008548561173990919063ffffffff16565b90506114b981600960003373ffffffffffffffffffffffffffffffffffffffff1673ffffffffffffffffffffffffffffffffffffffff1681526020019081526020016000205461172390919063ffffffff16565b600960003373ffffffffffffffffffffffffffffffffffffffff1673ffffffffffffffffffffffffffffffffffffffff1681526020019081526020016000208190555061154e81600960008873ffffffffffffffffffffffffffffffffffffffff1673ffffffffffffffffffffffffffffffffffffffff1681526020019081526020016000205461174f90919063ffffffff16565b600960008773ffffffffffffffffffffffffffffffffffffffff1673ffffffffffffffffffffffffffffffffffffffff168152602001908152602001600020819055508473ffffffffffffffffffffffffffffffffffffffff163373ffffffffffffffffffffffffffffffffffffffff167fddf252ad1be2c89b69c2b068fc378daa952ba7f163c4a11628f55a4df523b3ef866040516115ee91906123f5565b60405180910390a360019250505092915050565b6000600b60008473ffffffffffffffffffffffffffffffffffffffff1673ffffffffffffffffffffffffffffffffffffffff16815260200190815260200160002060008373ffffffffffffffffffffffffffffffffffffffff1673ffffffffffffffffffffffffffffffffffffffff16815260200190815260200160002054905092915050565b61169161193b565b600073ffffffffffffffffffffffffffffffffffffffff168173ffffffffffffffffffffffffffffffffffffffff161415611701576040517f08c379a00000000000000000000000000000000000000000000000000000000081526004016116f8906122f5565b60405180910390fd5b61170a816119b9565b50565b6000818361171b919061249d565b905092915050565b600081836117319190612699565b905092915050565b60008183611747919061263f565b905092915050565b6000818361175d9190612447565b905092915050565b600033905090565b600073ffffffffffffffffffffffffffffffffffffffff168273ffffffffffffffffffffffffffffffffffffffff1614156117dd576040517f08c379a00000000000000000000000000000000000000000000000000000000081526004016117d490612375565b60405180910390fd5b6117e982600083611b27565b60008060008473ffffffffffffffffffffffffffffffffffffffff1673ffffffffffffffffffffffffffffffffffffffff1681526020019081526020016000205490508181101561186f576040517f08c379a0000000000000000000000000000000000000000000000000000000008152600401611866906122d5565b60405180910390fd5b8181036000808573ffffffffffffffffffffffffffffffffffffffff1673ffffffffffffffffffffffffffffffffffffffff1681526020019081526020016000208190555081600260008282540392505081905550600073ffffffffffffffffffffffffffffffffffffffff168373ffffffffffffffffffffffffffffffffffffffff167fddf252ad1be2c89b69c2b068fc378daa952ba7f163c4a11628f55a4df523b3ef8460405161192291906123f5565b60405180910390a361193683600084611b2c565b505050565b611943611765565b73ffffffffffffffffffffffffffffffffffffffff16611961610fd3565b73ffffffffffffffffffffffffffffffffffffffff16146119b7576040517f08c379a00000000000000000000000000000000000000000000000000000000081526004016119ae90612355565b60405180910390fd5b565b6000600560009054906101000a900473ffffffffffffffffffffffffffffffffffffffff16905081600560006101000a81548173ffffffffffffffffffffffffffffffffffffffff021916908373ffffffffffffffffffffffffffffffffffffffff1602179055508173ffffffffffffffffffffffffffffffffffffffff168173ffffffffffffffffffffffffffffffffffffffff167f8be0079c531659141344cd1fd0a4f28419497f9722a3daafe3b4186f6b6457e060405160405180910390a35050565b6000611a8b8484611602565b90507fffffffffffffffffffffffffffffffffffffffffffffffffffffffffffffffff8114611b055781811015611af7576040517f08c379a0000000000000000000000000000000000000000000000000000000008152600401611aee90612335565b60405180910390fd5b611b048484848403611b31565b5b50505050565b600080821215611b1e5781600003611b20565b815b9050919050565b505050565b505050565b600073ffffffffffffffffffffffffffffffffffffffff168373ffffffffffffffffffffffffffffffffffffffff161415611ba1576040517f08c379a0000000000000000000000000000000000000000000000000000000008152600401611b9890612395565b60405180910390fd5b600073ffffffffffffffffffffffffffffffffffffffff168273ffffffffffffffffffffffffffffffffffffffff161415611c11576040517f08c379a0000000000000000000000000000000000000000000000000000000008152600401611c0890612315565b60405180910390fd5b80600160008573ffffffffffffffffffffffffffffffffffffffff1673ffffffffffffffffffffffffffffffffffffffff16815260200190815260200160002060008473ffffffffffffffffffffffffffffffffffffffff1673ffffffffffffffffffffffffffffffffffffffff168152602001908152602001600020819055508173ffffffffffffffffffffffffffffffffffffffff168373ffffffffffffffffffffffffffffffffffffffff167f8c5be1e5ebec7d5bd14f71427d1e84f3dd0314c0f7b2291e5b200ac8c7c3b92583604051611cef91906123f5565b60405180910390a3505050565b600081359050611d0b8161286d565b92915050565b600081359050611d2081612884565b92915050565b600081359050611d358161289b565b92915050565b600081359050611d4a816128b2565b92915050565b600060208284031215611d6257600080fd5b6000611d7084828501611cfc565b91505092915050565b60008060408385031215611d8c57600080fd5b6000611d9a85828601611cfc565b9250506020611dab85828601611cfc565b9150509250929050565b600080600060608486031215611dca57600080fd5b6000611dd886828701611cfc565b9350506020611de986828701611cfc565b9250506040611dfa86828701611d3b565b9150509250925092565b60008060408385031215611e1757600080fd5b6000611e2585828601611cfc565b9250506020611e3685828601611d11565b9150509250929050565b60008060408385031215611e5357600080fd5b6000611e6185828601611cfc565b9250506020611e7285828601611d3b565b9150509250929050565b600060208284031215611e8e57600080fd5b6000611e9c84828501611d3b565b91505092915050565b60008060408385031215611eb857600080fd5b6000611ec685828601611d3b565b9250506020611ed785828601611d26565b9150509250929050565b611eea816126cd565b82525050565b611ef9816126df565b82525050565b6000611f0a8261242b565b611f148185612436565b9350611f2481856020860161272c565b611f2d8161284f565b840191505092915050565b6000611f45602283612436565b91507f45524332303a206275726e20616d6f756e7420657863656564732062616c616e60008301527f63650000000000000000000000000000000000000000000000000000000000006020830152604082019050919050565b6000611fab602683612436565b91507f4f776e61626c653a206e6577206f776e657220697320746865207a65726f206160008301527f64647265737300000000000000000000000000000000000000000000000000006020830152604082019050919050565b6000612011602283612436565b91507f45524332303a20617070726f766520746f20746865207a65726f20616464726560008301527f73730000000000000000000000000000000000000000000000000000000000006020830152604082019050919050565b6000612077601d83612436565b91507f45524332303a20696e73756666696369656e7420616c6c6f77616e63650000006000830152602082019050919050565b60006120b7602083612436565b91507f4f776e61626c653a2063616c6c6572206973206e6f7420746865206f776e65726000830152602082019050919050565b60006120f7602183612436565b91507f45524332303a206275726e2066726f6d20746865207a65726f2061646472657360008301527f73000000000000000000000000000000000000000000000000000000000000006020830152604082019050919050565b600061215d602483612436565b91507f45524332303a20617070726f76652066726f6d20746865207a65726f2061646460008301527f72657373000000000000000000000000000000000000000000000000000000006020830152604082019050919050565b60006121c3601483612436565b91507f6f6e6c79206d6f6e657461727920706f6c6963790000000000000000000000006000830152602082019050919050565b6000612203600e83612436565b91507f796f75206172652062616e6e65640000000000000000000000000000000000006000830152602082019050919050565b61223f81612715565b82525050565b61224e8161271f565b82525050565b60006020820190506122696000830184611ee1565b92915050565b60006040820190506122846000830185611ee1565b6122916020830184611ef0565b9392505050565b60006020820190506122ad6000830184611ef0565b92915050565b600060208201905081810360008301526122cd8184611eff565b905092915050565b600060208201905081810360008301526122ee81611f38565b9050919050565b6000602082019050818103600083015261230e81611f9e565b9050919050565b6000602082019050818103600083015261232e81612004565b9050919050565b6000602082019050818103600083015261234e8161206a565b9050919050565b6000602082019050818103600083015261236e816120aa565b9050919050565b6000602082019050818103600083015261238e816120ea565b9050919050565b600060208201905081810360008301526123ae81612150565b9050919050565b600060208201905081810360008301526123ce816121b6565b9050919050565b600060208201905081810360008301526123ee816121f6565b9050919050565b600060208201905061240a6000830184612236565b92915050565b60006020820190506124256000830184612245565b92915050565b600081519050919050565b600082825260208201905092915050565b600061245282612715565b915061245d83612715565b9250827fffffffffffffffffffffffffffffffffffffffffffffffffffffffffffffffff03821115612492576124916127c2565b5b828201905092915050565b60006124a882612715565b91506124b383612715565b9250826124c3576124c26127f1565b5b828204905092915050565b6000808291508390505b6001851115612518578086048111156124f4576124f36127c2565b5b60018516156125035780820291505b808102905061251185612860565b94506124d8565b94509492505050565b600061252c82612715565b915061253783612715565b92506125647fffffffffffffffffffffffffffffffffffffffffffffffffffffffffffffffff848461256c565b905092915050565b60008261257c5760019050612638565b8161258a5760009050612638565b81600181146125a057600281146125aa576125d9565b6001915050612638565b60ff8411156125bc576125bb6127c2565b5b8360020a9150848211156125d3576125d26127c2565b5b50612638565b5060208310610133831016604e8410600b841016171561260e5782820a905083811115612609576126086127c2565b5b612638565b61261b84848460016124ce565b92509050818404811115612632576126316127c2565b5b81810290505b9392505050565b600061264a82612715565b915061265583612715565b9250817fffffffffffffffffffffffffffffffffffffffffffffffffffffffffffffffff048311821515161561268e5761268d6127c2565b5b828202905092915050565b60006126a482612715565b91506126af83612715565b9250828210156126c2576126c16127c2565b5b828203905092915050565b60006126d8826126f5565b9050919050565b60008115159050919050565b6000819050919050565b600073ffffffffffffffffffffffffffffffffffffffff82169050919050565b6000819050919050565b600060ff82169050919050565b60005b8381101561274a57808201518184015260208101905061272f565b83811115612759576000848401525b50505050565b6000600282049050600182168061277757607f821691505b6020821081141561278b5761278a612820565b5b50919050565b600061279c82612715565b91506127a783612715565b9250826127b7576127b66127f1565b5b828206905092915050565b7f4e487b7100000000000000000000000000000000000000000000000000000000600052601160045260246000fd5b7f4e487b7100000000000000000000000000000000000000000000000000000000600052601260045260246000fd5b7f4e487b7100000000000000000000000000000000000000000000000000000000600052602260045260246000fd5b6000601f19601f8301169050919050565b60008160011c9050919050565b612876816126cd565b811461288157600080fd5b50565b61288d816126df565b811461289857600080fd5b50565b6128a4816126eb565b81146128af57600080fd5b50565b6128bb81612715565b81146128c657600080fd5b5056fea2646970667358221220de9c35a3a89db50dd441eb684f8cacd8b6f70b0d235771d1c35ae07a3641311a64736f6c63430008000033",
  "linkReferences": {},
  "deployedLinkReferences": {}
}